:1000000003C003C003C003C003C003C003C003C0D8
:100080000EC025C024C023C022C021C020C01FC074
:100090001EC01DC01CC01BC01AC019C018C0000063
:1000A0000000000000000000000000000000000050
:1000B000000000000000000000000000000011240B
:1000C0001FBECFE5D2E0DEBFCDBF1ED436C4D8CF31
:1000D000009731F0EDE1F0E13197F1F70197F8CFBA
:1000E0000895807C20E030E0FC01E20FF31F459191
:1000F0005491F901EE7FE60FF71F518340832E5F85
:100100003F4F2034310581F70895FC01E07C93E0F6
:1001100090935700E89507B600FCFDCF0895CF9364
:10012000DF939B01205C3F4FDB01FC01E61BF70BDB
:10013000EA0FFB1FCD91DD9141E00E014093570086
:10014000E8951124A217B30781F725E0FC0120935D
:100150005700E89507B600FCFDCFDF91CF910895D9
:10016000CF93DF93CDB7DEB7C054D1090FB6F89463
:10017000DEBF0FBECDBFBE016F5F7F4F80E090E05E
:10018000B0DFFE013196CE018F5B9F4F2FEF3FEF27
:1001900021933193E817F907C9F780E090E0B5DFC4
:1001A000BE016F5F7F4F80E090E0B9DFC05CDF4F42
:1001B0000FB6F894DEBF0FBECDBFDF91CF9108958B
:1001C000EF92FF920F931F93CF93DF93CDB7DEB7DC
:1001D000C054D1090FB6F894DEBF0FBECDBF00E00A
:1001E00010E046E0063014070CF03BC020E030E0A1
:1001F000F901E00FF11FEE5FFC4FC901959587955E
:1002000049E0E830F4076CF445915491880F991F48
:10021000E1E0F0E0EC0FFD1FE80FF91F5183408390
:100220000CC0880F991FE1E0F0E0EC0FFD1FE80F14
:10023000F91F8FEF9FEF918380832E5F3F4F203414
:100240003105B1F6780180E4E81A86EEF80AC701B4
:100250005CDFBE016F5F7F4FC70161DF005C1F4F36
:10026000C0CFC05CDF4F0FB6F894DEBF0FBECDBF6E
:10027000DF91CF911F910F91FF90EF9008950F9311
:100280001F93CF93DF93CDB7DEB7C054D1090FB61C
:10029000F894DEBF0FBECDBFFE013196CE018F5B5D
:1002A0009F4F8F012FED3CEC21933193E817F90715
:1002B000C9F780E090E029DFB80180E090E02FDF0F
:1002C000C05CDF4F0FB6F894DEBF0FBECDBFDF912D
:1002D000CF911F910F910895CF9387B3836087BB10
:1002E000C198CAEF81E090E0F3DEC19A81E090E02E
:1002F000EFDEC198C150B1F7CF910895E0E0F0E092
:10030000099416C019BA4005930B030009021200A4
:100310000101008032090400000000000000120109
:100320001001FF000008D01653070602000000016C
:1003300011241FBECFE5D2E0CDBFDEBF20E0A0E696
:10034000B0E001C01D92AC38B207E1F78DC1DC010D
:1003500080E090E041E050EA609530E009C02D91E6
:1003600082279795879510F084279527305EC8F3EC
:100370006F5FA8F38D939D930895CF93DF93CC2760
:10038000C395B39BE9F7B39B0BC0B39B09C0B39B69
:1003900007C0B39B05C0B39B03C0B39B01C0D1C0D2
:1003A0000F920F90C0916E00DD27CA58DF4F012ECB
:1003B000B39B03C00F920F90E6CF0F930F910F9353
:1003C0000F912FEF4F6F06B303FB20F90F930F919F
:1003D00050E03BE065C016B30126502953FDC89597
:1003E00056B3012703FB25F92F7306B3B1F050274D
:1003F000102713FB26F906B22230F0F000C016B326
:10040000012703FB27F90126502906B22430E8F51D
:100410004F77206816B30000F6CF50274F7D20623B
:1004200006B2102F000000C006B300265029102786
:1004300013FB26F906B2E2CF4F7B06B3206400C05F
:10044000DACF01265029187106B269F14E7F21607A
:10045000012F16B328C0002650294D7F06B2226016
:10046000102F29C0012650294B7F06B22460012F8E
:100470002DC016B301265029477F2860000006B220
:100480002EC04F7E06B3206130C0422706B3499389
:1004900000265029102706B24FEF13FB20F9297FC1
:1004A00016B379F2187159F10126502906B20127C5
:1004B00003FB21F9237F06B371F200265029315046
:1004C000D0F006B2102713FB22F9277E16B351F2A3
:1004D00001265029012703FB06B223F92F7C49F29C
:1004E000000006B3102713FB24F90026502906B29A
:1004F0002F7939F270CF10E21ABF00271DC03B5090
:100500003195C31BD04010E21ABF0881033CE1F0D3
:100510000B34D1F020916C001981110F1213EDCF23
:10052000093609F10D3211F0013E39F7CAE01AB768
:1005300015FD02C0CA95D9F700937400CAB7C5FD6E
:100540001FCFDF91CF910895209174002223B1F342
:10055000109172001123F1F43430F2F030937200F4
:1005600020936D0019C00091720001309CF40AE5DF
:1005700030916F0034FD11C000936F00C1E6D0E0F0
:1005800010C0052710E000C021C0052710E0C89565
:1005900008BB14C03AE501C032ED032EC0E0D0E044
:1005A00032E017B31861C39A08B317BB58E120E8CB
:1005B0004FEF20FF052708BB279517951C3F28F70D
:1005C00000004552B0F720FF0527279508BB179577
:1005D0001C3FB8F629913A9561F7077E1091730098
:1005E000110F08BBC250D04011F010936C0010E204
:1005F0001ABF086017B3177E402F477E54E05A9504
:10060000F1F708BB17BB48BB99CFB39BFECF07D010
:1006100006D001D000D09B5A71B7791B71BF6FEF24
:1006200080E29927669576B37029809674FB67F906
:1006300006B203FE6623B1F70895F201309741F048
:100640002AEB421629E1520629F481B790E002C054
:100650008FED9CEC21E00C0120935700E8951124CC
:10066000CF0102962C010895B898C09A8DE190E1CF
:100670000197F1F7EAEBF9E1E491EF3F11F0E1BF07
:100680000000B09B06C0EDEBF9E1E491EF3F09F00B
:1006900036C188E181BD87E081BDBB9A88EB9BE0D4
:1006A000ECE9F1E03197F1F70197D1F7BB988AE5D2
:1006B00080936F008FEF80936000AC9A8BB780625D
:1006C0008BBF712C312C412C512CCCE7D5E114E699
:1006D00086B3887109F014E6115029F41092730062
:1006E00010926C0092DF0AB605FE04C046DE80E27E
:1006F0008ABF02C0219761F7A895832D823069F4E3
:10070000E0ECF9E1E054F10983E080935700E895CB
:100710003097C1F7412C512C12C0803459F4F201AA
:100720003297E03C29E1F20750F485E080935700CE
:10073000E89505C0843019F4CD2B11F4DDC0312CBF
:1007400080917200835087FD8EC090916D009D3224
:1007500009F087C0883009F084C083EC8093610081
:100760008AE580936F008091770080769091780081
:10077000882381F1712C911108C082EC99E190934A
:1007800071008093700088E061C0913069F4411479
:100790005104F1F080917B00807C482E50907C00C9
:1007A00081E187BFE89514C0933081F4809179008E
:1007B00090917A0042DF80917B0090917C003DDF38
:1007C000842D8F7329F490E4392E40C09F73392E05
:1007D00080E03CC08091790010926A00911106C0BF
:1007E00010926B002AE630E082E02CC0953019F4BC
:1007F0008093730019C0963089F480917A0081301B
:1008000019F48CED99E104C0823011F78AEC99E17A
:10081000909371008093700082E118C0983079F055
:10082000993031F4809375002AE630E080E00AC008
:1008300081E09A3009F080E02AE630E003C025E745
:1008400030E081E0309371002093700090917E0041
:10085000911105C090917D00981708F4892F80931D
:1008600060001092720080916F0084FF2FC0809111
:1008700060008F3F59F1C82F893008F0C8E08C1B09
:10088000809360009091610088E8892780936100DF
:10089000CC2381F0E0917000F0917100A2E6B0E00D
:1008A0008C2F94919D9331968150D9F7F0937100DC
:1008B000E09370006C2F82E690E049DDCC5FCC3095
:1008C00019F08FEF80936000C0936F00C301019611
:1008D0003C01803B944029F4EDEBF9E1E491EF3FDA
:1008E00059F40AB605FEF1CE8DE1B39B8DE181503E
:1008F000E1F780E28ABFE9CE17BA1BBE15BAC098ED
:1009000084B781BB14BEFBCC88B318BA87B38FEF12
:1009100087BB8AEF90E0DCDB87B317BA8AEF90E001
:10092000D7DBF8941DDC4CDCAADCD6DC8DEB99E13E
:0E093000ECDBE4DC80E090E00895F894FFCF6B
:040000030000008079
:00000001FF
